:100000000C9434000C943E000C943E000C943E0082
:100010000C943E000C943E000C943E000C943E0068
:100020000C943E000C943E000C943E000C943E0058
:100030000C943E000C943E000C943E000C943E0048
:100040000C943E000C943E000C943E000C943E0038
:100050000C943E000C943E000C943E000C943E0028
:100060000C943E000C943E0011241FBECFEFD8E04C
:10007000DEBFCDBF0E9440000C949C000C94000099
:10008000DF93CF9300D00F92CDB7DEB7AAE2B0E0F6
:10009000EAE2F0E0808181608C93AAE2B0E0EAE2DB
:1000A000F0E0808181608C93AAE2B0E0EAE2F0E0C7
:1000B00080818B7F8C93ABE2B0E0EBE2F0E080815B
:1000C00080618C938FEC90E09A838983E5ECF0E07B
:1000D00089819A81892F990F990B8083E4ECF0E054
:1000E00089818083E1ECF0E088E18083E2ECF0E05C
:1000F00088E08083E2ECF0E086E08083E0ECF0E0F2
:1001000080818823DCF7E6ECF0E080818B838B81B3
:10011000803F49F4A5E2B0E0E5E2F0E0908180E1C3
:1001200089278C93EBCFA5E2B0E0E5E2F0E0908187
:0C01300080E289278C93E2CFF894FFCF87
:00000001FF
