:100000000C9434000C9449000C9449000C94490061
:100010000C9449000C9449000C9449000C9449003C
:100020000C9449000C9449000C9449000C9449002C
:100030000C9449000C9449000C9449000C9449001C
:100040000C9449000C9449000C9449000C9449000C
:100050000C9449000C9449000C9449000C944900FC
:100060000C9449000C94490011241FBECFEFD8E036
:10007000DEBFCDBF11E0A0E0B1E0ECECF3E102C0E7
:1000800005900D92A830B107D9F70E944B000C944F
:10009000E4090C9400000F931F93DF93CF93CDB727
:1000A000DEB7CC54D0400FB6F894DEBF0FBECDBF44
:1000B000A4E2B0E0E4E2F0E080818E608C93FE0187
:1000C000E75BFF4F80E090E0A0E7B1E4808391839D
:1000D000A283B3838E010B5B1F4FFE01E75BFF4FD3
:1000E000608171818281938120E030E04AE755E4AC
:1000F0000E947D05DC01CB01F80180839183A283FE
:10010000B383FE01EB5BFF4F60817181828193813C
:1001100020E030E040E85FE30E948307882344F456
:10012000FE01ED5BFF4F81E090E09183808364C02E
:10013000FE01EB5BFF4F608171818281938120E042
:100140003FEF4FE757E40E94230718160CF043C017
:10015000FE01E75BFF4F608171818281938120E026
:1001600030E040E251E40E947D05DC01CB018E01CC
:100170000D5B1F4FBC01CD010E94A703DC01CB0129
:10018000F801918380831FC0FE01EF5BFF4F80E980
:1001900091E091838083FE01EF5BFF4F808191812D
:1001A0000197F1F7FE01EF5BFF4F91838083DE0142
:1001B000AD5BBF4FFE01ED5BFF4F808191810197E9
:1001C00011969C938E93FE01ED5BFF4F8081918190
:1001D0000097D1F624C08E010D5B1F4FFE01EB5B33
:1001E000FF4F60817181828193810E94A703DC01AE
:1001F000CB01F80191838083FE01ED5BFF4F80818D
:100200009181FE01FF9691838083FE01FF9680819C
:1002100091810197F1F7FE01FF969183808381E040
:100220000E94490380E090E0A0E0B0E48BAF9CAF77
:10023000ADAFBEAF6BAD7CAD8DAD9EAD20E030E01F
:100240004AE755E40E947D05DC01CB018FAB98AFF6
:10025000A9AFBAAF6FA978AD89AD9AAD20E030E013
:1002600040E85FE30E94830788232CF481E090E05C
:100270009EAB8DAB3FC06FA978AD89AD9AAD20E044
:100280003FEF4FE757E40E94230718164CF56BAD7C
:100290007CAD8DAD9EAD20E030E040E251E40E94A7
:1002A0007D05DC01CB01BC01CD010E94A703DC016F
:1002B000CB019EAB8DAB0FC080E991E09CAB8BABCB
:1002C0008BA99CA90197F1F79CAB8BAB8DA99EA93B
:1002D00001979EAB8DAB8DA99EA9009769F714C0BD
:1002E0006FA978AD89AD9AAD0E94A703DC01CB015F
:1002F0009EAB8DAB8DA99EA99AAB89AB89A99AA912
:100300000197F1F79AAB89AB88E30E94490380E03B
:1003100090E0A8E4B2E48DA79EA7AFA7B8AB6DA507
:100320007EA58FA598A92BEA3AEA4AEA50E40E94F2
:100330007D05DC01CB0189A79AA7ABA7BCA769A55E
:100340007AA58BA59CA520E030E040E85FE30E9401
:10035000830788231CF481E088A791C069A57AA54A
:100360008BA59CA520E030E04FE753E40E942307D3
:1003700018160CF07BC06DA57EA58FA598A920E06E
:1003800030E04AE754E40E947706DC01CB018CA3FD
:100390009DA3AEA3BFA36CA17DA18EA19FA120E0D0
:1003A00030E04AE755E40E947D05DC01CB0188A3DB
:1003B00099A3AAA3BBA368A179A18AA19BA120E0CC
:1003C00030E040E85FE30E94830788232CF481E05B
:1003D00090E09F8F8E8F3FC068A179A18AA19BA1D9
:1003E00020E03FEF4FE757E40E94230718164CF533
:1003F0006CA17DA18EA19FA120E030E040E251E4FC
:100400000E947D05DC01CB01BC01CD010E94A70348
:10041000DC01CB019F8F8E8F0FC080E991E09D8F13
:100420008C8F8C8D9D8D0197F1F79D8F8C8F8E8D8C
:100430009F8D01979F8F8E8F8E8D9F8D009769F76F
:1004400024C068A179A18AA19BA10E94A703DC0115
:10045000CB019F8F8E8F8E8D9F8D9B8F8A8F8A8DE4
:100460009B8D0197F1F79B8F8A8F0FC069A57AA5A5
:100470008BA59CA50E94A703DC01CB0188A788A5BA
:10048000898F898D8A95F1F7898F8EE00E944903C3
:1004900080E090E0A8E4B2E48D8B9E8BAF8BB88FA8
:1004A0006D897E898F89988D2BEA3AEA4AEA50E471
:1004B0000E947D05DC01CB01898B9A8BAB8BBC8BB9
:1004C00069897A898B899C8920E030E040E85FE384
:1004D0000E94830788231CF481E0888B91C069897E
:1004E0007A898B899C8920E030E04FE753E40E94B1
:1004F000230718160CF07BC06D897E898F89988D33
:1005000020E030E04AE754E40E947706DC01CB01AA
:100510008C879D87AE87BF876C857D858E859F85FF
:1005200020E030E04AE755E40E947D05DC01CB0184
:1005300088879987AA87BB87688579858A859B85FF
:1005400020E030E040E85FE30E94830788232CF43A
:1005500081E090E09F838E833FC0688579858A859E
:100560009B8520E03FEF4FE757E40E9423071816D2
:100570004CF56C857D858E859F8520E030E040E2DE
:1005800051E40E947D05DC01CB01BC01CD010E943C
:10059000A703DC01CB019F838E830FC080E991E02C
:1005A0009D838C838C819D810197F1F79D838C8342
:1005B0008E819F8101979F838E838E819F8100977B
:1005C00069F724C0688579858A859B850E94A70381
:1005D000DC01CB019F838E838E819F819B838A83E5
:1005E0008A819B810197F1F79B838A830FC0698978
:1005F0007A898B899C890E94A703DC01CB01888BB7
:100600008889898389818A95F1F789838AE50E949F
:10061000780382E40E94780383E40E947803FFCF8A
:10062000DF93CF93CDB7DEB7EAE2F0E01082ABE222
:10063000B0E0EBE2F0E0808184608C93ABE2B0E06C
:10064000EBE2F0E08081807F8C9302C00E94340353
:10065000EBE2F0E080818823CCF3EAE2F0E08FEF78
:100660008083CF91DF910895DF93CF93CDB7DEB72D
:10067000A5E2B0E0E5E2F0E0808182608C93A5E243
:10068000B0E0E5E2F0E080818C7F8C93CF91DF9148
:100690000895DF93CF930F92CDB7DEB789830E9481
:1006A0001003A5E2B0E0E5E2F0E0808182608C9387
:1006B000EBE2F0E089818083A5E2B0E0E5E2F0E0E2
:1006C00080818B7F8C93A5E2B0E0E5E2F0E0808151
:1006D000877F8C93A5E2B0E0E5E2F0E080818C7F3B
:1006E0008C93EBE2F0E010820F90CF91DF910895B0
:1006F000DF93CF930F92CDB7DEB789830E941003AB
:10070000A5E2B0E0E5E2F0E0808182608C93EBE26C
:10071000F0E089818083A5E2B0E0E5E2F0E080814D
:100720008B7F8C93A5E2B0E0E5E2F0E08081886009
:100730008C93A5E2B0E0E5E2F0E080818C7F8C93C1
:10074000EBE2F0E010820F90CF91DF910895EF92ED
:10075000FF920F931F937B018C0120E030E040E07B
:100760005FE40E94530788238CF0C801B70120E0A2
:1007700030E040E05FE40E941F050E94B3079B0148
:10078000AC01205030404040504806C0C801B7017D
:100790000E94B3079B01AC01B901CA011F910F91DF
:1007A000FF90EF900895A0E0B0E0E9EDF3E00C9445
:1007B000AD09DC012B01FA019C91923008F439C19A
:1007C000EB018881823008F433C1943069F48430BD
:1007D00009F02FC111969C9111978981981709F4FE
:1007E00028C1A0E0B1E025C1843009F421C18230E4
:1007F000A9F4923009F01DC19A01AD0188E0EA0127
:100800000990AE01E90109929E018150C1F7E20110
:10081000898111969C918923818308C1923009F4C2
:1008200007C112962D903C901397EB018A819B8112
:100830001496AD90BD90CD90DC901797EC80FD8024
:100840000E811F819101281B390BB90137FF04C0AC
:1008500066277727621B730B603271050CF061C04D
:10086000121613066CF537014801062E04C0969443
:100870008794779467940A94D2F721E030E040E0BF
:1008800050E004C0220F331F441F551F6A95D2F752
:1008900021503040404050402E213F2140235123E1
:1008A000211531054105510521F021E030E040E0FE
:1008B00050E079018A01E628F728082919293CC067
:1008C000232BD1F1260E371E35014601062E04C01A
:1008D00096948794779467940A94D2F721E030E055
:1008E00040E050E004C0220F331F441F551F6A959B
:1008F000D2F721503040404050402A213B214C212A
:100900005D21211531054105510521F021E030E03F
:1009100040E050E059016A01A628B728C828D92824
:100920000BC0821593052CF01C01AA24BB24650181
:1009300003C0EE24FF24870111969C91D2011196E9
:100940008C91981709F445C0992339F0A8019701B3
:100950002A193B094C095D0906C0A60195012E190B
:100960003F09400B510B57FD08C011823382228290
:1009700024833583468357831DC081E0818333827E
:10098000228288279927DC01821B930BA40BB50BCD
:1009900084839583A683B7830DC0220F331F441F22
:1009A000551F248335834683578382819381019722
:1009B000938382832481358146815781DA01C9017D
:1009C0000197A109B1098F5F9F4FAF4FBF4328F334
:1009D0000BC0918333822282EA0CFB1C0C1D1D1D6F
:1009E000E482F5820683178383E080832481358146
:1009F0004681578157FF1AC0C901AA2797FDA095C4
:100A0000BA2F81709070A070B07056954795379549
:100A10002795822B932BA42BB52B84839583A683B8
:100A2000B78382819381019693838283DF0101C022
:100A3000D201CD01CDB7DEB7E2E10C94C909A0E245
:100A4000B0E0E5E2F5E00C94B90969837A838B8321
:100A50009C832D833E834F835887E9E0EE2EF12C53
:100A6000EC0EFD1ECE010196B7010E94DC088E013E
:100A70000F5E1F4FCE010596B8010E94DC088A89DF
:100A800091E089278A8BC701B801AE01475E5F4FAD
:100A90000E94D3030E940708A096E6E00C94D509B3
:100AA000A0E2B0E0E6E5F5E00C94B90969837A8349
:100AB0008B839C832D833E834F835887F9E0EF2EF1
:100AC000F12CEC0EFD1ECE010196B7010E94DC0850
:100AD0008E010F5E1F4FCE010596B8010E94DC0803
:100AE000C701B801AE01475E5F4F0E94D3030E9469
:100AF0000708A096E6E00C94D509A0E2B0E0E3E890
:100B0000F5E00C94AD0969837A838B839C832D83F4
:100B10003E834F835887CE010196BE01675F7F4FAA
:100B20000E94DC08CE010596BE016F5E7F4F0E94D9
:100B3000DC089985923088F089898230C8F0943039
:100B400019F4823051F404C0843029F4923081F4D5
:100B500080E091E0C6C0923049F420E09A858A890D
:100B6000981321E02A87CE010996BBC0823049F450
:100B700020E09A858A89981321E02A8BCE0141963C
:100B8000B0C02D843E844F8458886D887E888F88BD
:100B9000988CEE24FF248701AA24BB24650140E041
:100BA00050E060E070E0E0E0F0E0C1018170907042
:100BB000892BE9F0E60CF71C081D191D9A01AB0101
:100BC0002A0D3B1D4C1D5D1D80E090E0A0E0B0E0D3
:100BD000E614F7040805190520F481E090E0A0E090
:100BE000B0E0BA01A901480F591F6A1F7B1FAA0C68
:100BF000BB1CCC1CDD1C97FE08C081E090E0A0E08F
:100C0000B0E0A82AB92ACA2ADB2A3196E032F105D7
:100C100049F0660C771C881C991C569447943794AD
:100C20002794C3CFFA85EA892B893C898B859C85DB
:100C3000280F391F2E5F3F4F17C0CA018170907077
:100C4000892B61F016950795F794E79480E090E082
:100C5000A0E0B0E8E82AF92A0A2B1B2B76956795C5
:100C6000579547952F5F3F4F77FDE7CF0CC0440F57
:100C7000551F661F771F17FD4160EE0CFF1C001FFC
:100C8000111F21503040403090E0590790E0690733
:100C900090E4790760F32B8F3C8FDB01CA018F77DB
:100CA0009070A070B07080349105A105B10561F419
:100CB00047FD0AC0E114F1040105110529F0405C6B
:100CC0005F4F6F4F7F4F40781A8EFE1711F081E013
:100CD0008A8F4D8F5E8F6F8F78A383E0898FCE01CF
:100CE00049960E940708A096E2E10C94C909A8E180
:100CF000B0E0EDE7F6E00C94B50969837A838B8365
:100D00009C832D833E834F835887B9E0EB2EF12CD3
:100D1000EC0EFD1ECE010196B7010E94DC088E018B
:100D20000F5E1F4FCE010596B8010E94DC08298591
:100D3000223008F47EC03989323010F4B8017CC00A
:100D40008A859A8989278A87243011F0223031F4E4
:100D5000231709F06EC060E071E06EC0343039F4E2
:100D60001D861E861F86188A1C861B8604C032308C
:100D700021F484E08987B7015FC02B853C858B898E
:100D80009C89281B390B3C872B87ED84FE840F85BB
:100D90001889AD88BE88CF88D88CEA14FB040C056E
:100DA0001D0540F4EE0CFF1C001F111F21503040A8
:100DB0003C872B8720E030E040E050E080E090E08E
:100DC000A0E0B0E460E070E0EA14FB040C051D054F
:100DD00040F0282B392B4A2B5B2BEA18FB080C0917
:100DE0001D09B695A79597958795EE0CFF1C001FDA
:100DF000111F6F5F7F4F6F31710531F7DA01C90144
:100E00008F779070A070B07080349105A105B10506
:100E100061F427FD0AC0E114F1040105110529F070
:100E2000205C3F4F4F4F5F4F20782D873E874F8785
:100E3000588BBE01675F7F4FCB010E940708689601
:100E4000EAE00C94D109A8E1B0E0E9E2F7E00C9403
:100E5000B90969837A838B839C832D833E834F8377
:100E6000588789E0E82EF12CEC0EFD1ECE0101968C
:100E7000B7010E94DC088E010F5E1F4FCE01059660
:100E8000B8010E94DC088985823040F0898982306F
:100E900028F0C701B8010E94540901C08FEF68967D
:100EA000E6E00C94D509A8E1B0E0E9E5F7E00C94A0
:100EB000B90969837A838B839C832D833E834F8317
:100EC000588789E0E82EF12CEC0EFD1ECE0101962C
:100ED000B7010E94DC088E010F5E1F4FCE01059600
:100EE000B8010E94DC088985823040F0898982300F
:100EF00028F0C701B8010E94540901C08FEF68961D
:100F0000E6E00C94D509A8E1B0E0E9E8F7E00C943C
:100F1000B90969837A838B839C832D833E834F83B6
:100F2000588789E0E82EF12CEC0EFD1ECE010196CB
:100F3000B7010E94DC088E010F5E1F4FCE0105969F
:100F4000B8010E94DC088985823040F089898230AE
:100F500028F0C701B8010E94540901C081E06896D9
:100F6000E6E00C94D509ACE0B0E0E9EBF7E00C94D6
:100F7000BD0969837A838B839C83CE010196BE0170
:100F80006B5F7F4F0E94DC088D81823061F182307F
:100F900050F1843021F48E81882351F12EC02F81AD
:100FA000388537FD20C06E812F3131051CF0662356
:100FB000F9F023C08EE190E0821B930B29853A85DE
:100FC0004B855C8504C056954795379527958A953E
:100FD000D2F76623B1F050954095309521953F4F5B
:100FE0004F4F5F4F0EC020E030E040E050E009C0BE
:100FF0002FEF3FEF4FEF5FE704C020E030E040E02D
:1010000050E8B901CA012C96E2E00C94D909DF92AC
:10101000EF92FF920F931F93FC01E480F58006810D
:101020001781D1808081823048F480E090E0A0E197
:10103000B0E0E82AF92A0A2B1B2BA5C0843009F45A
:101040009FC0823021F4EE24FF24870105C0E11403
:10105000F1040105110519F4E0E0F0E096C06281A9
:1010600073819FEF623879070CF05BC022E83FEF95
:10107000261B370B2A3131052CF020E030E040E010
:1010800050E02AC0B801A701022E04C076956795EA
:10109000579547950A94D2F781E090E0A0E0B0E040
:1010A00004C0880F991FAA1FBB1F2A95D2F701976A
:1010B000A109B1098E219F21A023B1230097A10589
:1010C000B10521F081E090E0A0E0B0E09A01AB0131
:1010D000282B392B4A2B5B2BDA01C9018F779070B3
:1010E000A070B07080349105A105B10539F427FFD7
:1010F00009C0205C3F4F4F4F5F4F04C0215C3F4F02
:101100004F4F5F4FE0E0F0E02030A0E03A07A0E072
:101110004A07A0E45A0710F0E1E0F0E079018A0103
:1011200027C06038710564F5FB01E158FF4FD80115
:10113000C7018F779070A070B07080349105A105C1
:10114000B10539F4E7FE0DC080E490E0A0E0B0E026
:1011500004C08FE390E0A0E0B0E0E80EF91E0A1FA3
:101160001B1F17FF05C016950795F794E794319656
:1011700087E016950795F794E7948A95D1F705C00F
:10118000EE24FF248701EFEFF0E06E2F67956627CE
:101190006795902F9F77D794DD24D7948E2F8695CF
:1011A000492F462B582F5D29B701CA011F910F9176
:1011B000FF90EF90DF900895FC01DB0140815181A9
:1011C0002281622F6F7770E0221F2227221F9381D6
:1011D000892F880F822B282F30E0991F9927991F7C
:1011E00011969C93119721153105A9F541155105CB
:1011F0006105710511F482E037C082E89FEF139614
:101200009C938E9312979A01AB0167E0220F331FD4
:10121000441F551F6A95D1F783E08C930DC0220FB0
:10122000331F441F551F12968D919C911397019760
:1012300013969C938E931297203080E0380780E0BD
:10124000480780E4580758F314962D933D934D9327
:101250005C93179708952F3F310579F44115510597
:101260006105710519F484E08C93089564FF03C04F
:1012700081E08C9312C01C9210C02F5730401396FF
:101280003C932E93129783E08C9387E0440F551F75
:10129000661F771F8A95D1F7706414964D935D93FE
:1012A0006D937C93179708951F93DC01FB019C912C
:1012B000923008F447C08081823008F443C09430F3
:1012C00051F411961C91843099F58181682F70E05A
:1012D000611B71093FC0843021F0923031F48230BB
:1012E000B9F18181882389F12DC011961C91119744
:1012F0008230F1F081811817D9F412962D913C912A
:101300001397828193818217930794F028173907E6
:10131000BCF014968D919D910D90BC91A02D2481CF
:10132000358146815781281739074A075B0718F42A
:10133000112341F00AC082179307A407B50740F4B0
:10134000112319F061E070E005C06FEF7FEF02C07C
:1013500060E070E0CB011F9108952F923F924F9271
:101360005F926F927F928F929F92AF92BF92CF9235
:10137000DF92EF92FF920F931F93CF93DF93CDB73E
:10138000DEB7CA1BDB0B0FB6F894DEBF0FBECDBFB6
:1013900009942A88398848885F846E847D848C8487
:1013A0009B84AA84B984C884DF80EE80FD800C8190
:1013B0001B81AA81B981CE0FD11D0FB6F894DEBF73
:0C13C0000FBECDBFED010895F894FFCFE3
:0813CC00000000000000000019
:00000001FF
