:100000000C9434000C9451000C9451000C94510049
:100010000C9451000C9451000C9451000C9451001C
:100020000C9451000C9451000C9451000C9451000C
:100030000C9451000C9451000C9451000C945100FC
:100040000C9451000C9451000C9451000C945100EC
:100050000C9451000C9451000C9451000C945100DC
:100060000C9451000C94510011241FBECFEFD8E026
:10007000DEBFCDBF11E0A0E0B1E0EAEEF3E002C0E8
:1000800005900D92AC30B107D9F711E0ACE0B1E0CA
:1000900001C01D92A032B107E1F70E9453000C94F9
:1000A000F3010C940000DF93CF93CDB7DEB7E7E206
:1000B000F0E08DEF8083EAE2F0E08FEE8083A8E24B
:1000C000B0E0E8E2F0E0808182608C93ABE2B0E0E7
:1000D000EBE2F0E0808180618C9382E090E090938D
:1000E0000D0180930C01E6E2F0E08081882F90E022
:1000F00082709070009729F480E090E00E94B9002F
:1001000004C080E090E00E945A01E9E2F0E08081C2
:10011000882F90E080719070009729F481E090E042
:100120000E94B90004C081E090E00E945A018091D1
:100130001401909115018430910541F4A8E2B0E0DA
:10014000E8E2F0E0808180648C930EC0809116011B
:10015000909117018430910531F6ABE2B0E0EBE20B
:10016000F0E0808180628C9380E090E0CF91DF911D
:100170000895DF93CF9300D000D0CDB7DEB79C8336
:100180008B832B813C81C901880F991FFC01E85E9C
:10019000FE4F80819181AC014F5F5F4FC901880F95
:1001A000991FFC01E85EFE4F518340838B819C8147
:1001B000880F991FFC01E85EFE4F8081918121E04C
:1001C000853F92070CF46FC08B819C81880F991F2B
:1001D000FC01E85FFE4F808191818130910509F03B
:1001E00062C08B819C810097C9F480E090E00E94FE
:1001F0009B012B813C81C901880F991FFC01EC5E9A
:10020000FE4F80819181AC014F5F5F4FC901880F24
:10021000991FFC01EC5EFE4F518340838B819C81D2
:1002200081309105C9F481E090E00E94C7012B81E3
:100230003C81C901880F991FFC01EC5EFE4F808153
:100240009181AC014F5F5F4FC901880F991FFC017D
:10025000EC5EFE4F518340838B819C81880F991FF8
:10026000FC01E85EFE4F118210822B813C81C901A6
:10027000880F991FFC01E45FFE4F80819181AC01E2
:100280004F5F5F4FC901880F991FFC01E45FFE4F6C
:10029000518340838B819C81880F991FFC01E85F0B
:1002A000FE4F118210820F900F900F900F90CF9100
:1002B000DF910895DF93CF9300D0CDB7DEB79A8357
:1002C000898329813A81C901880F991FFC01E45E65
:1002D000FE4F80819181AC014F5F5F4FC901880F54
:1002E000991FFC01E45EFE4F5183408389819A810E
:1002F000880F991FFC01E45EFE4F80819181893C4B
:100300009105A4F089819A81880F991FFC01E85F0B
:10031000FE4F81E090E09183808389819A81880FEC
:10032000991FFC01E45EFE4F118210820F900F9026
:10033000CF91DF910895DF93CF9300D000D0CDB758
:10034000DEB79C838B831A8219828B819C81880FF4
:10035000991FFC01E45FFE4F808191819A8389831C
:10036000A8E2B0E0E8E2F0E08081282F81E090E0B0
:10037000098002C0880F991F0A94E2F7822B8C93A0
:100380000F900F900F900F90CF91DF910895DF9312
:10039000CF9300D000D0CDB7DEB79C838B831A8279
:1003A00019828B819C81880F991FFC01E45FFE4FAD
:1003B000808191819A838983ABE2B0E0EBE2F0E047
:1003C0008081282F81E090E0098002C0880F991F6A
:1003D0000A94E2F782278C930F900F900F900F9062
:0A03E000CF91DF910895F894FFCF4C
:0C03EA00000001000200030001000100FF
:00000001FF
