:100000000C9434000C9449000C9449000C94490061
:100010000C9449000C9449000C9449000C9449003C
:100020000C9449000C9449000C9449000C9449002C
:100030000C9449000C9449000C9449000C9449001C
:100040000C9449000C9449000C9449000C9449000C
:100050000C9449000C9449000C9449000C944900FC
:100060000C9449000C94490011241FBECFEFD8E036
:10007000DEBFCDBF11E0A0E0B1E0E0E4F6E102C0F8
:1000800005900D92AC30B107D9F70E944B000C944B
:100090001E0B0C9400000F931F93DF93CF93CDB7EB
:1000A000DEB7C256D0400FB6F894DEBF0FBECDBF4C
:1000B000A4E2B0E0E4E2F0E080818E608C93FE0187
:1000C000E95AFF4F80E090E0A0E7B1E4808391839C
:1000D000A283B3838E010D5A1F4FFE01E95AFF4FD1
:1000E000608171818281938120E030E04AE755E4AC
:1000F0000E946E06DC01CB01F80180839183A2830C
:10010000B383FE01ED5AFF4F60817181828193813B
:1001100020E030E040E85FE30E947408882344F464
:10012000FE01EF5AFF4F81E090E09183808364C02D
:10013000FE01ED5AFF4F608171818281938120E041
:100140003FEF4FE757E40E94140818160CF043C025
:10015000FE01E95AFF4F608171818281938120E025
:1001600030E040E251E40E946E06DC01CB018E01DA
:100170000F5A1F4FBC01CD010E949804DC01CB0136
:10018000F801918380831FC0FE01E15BFF4F80E98E
:1001900091E091838083FE01E15BFF4F808191813B
:1001A0000197F1F7FE01E15BFF4F91838083DE0150
:1001B000AF5ABF4FFE01EF5AFF4F808191810197E7
:1001C00011969C938E93FE01EF5AFF4F808191818F
:1001D0000097D1F627C08E010F5A1F4FFE01ED5A2E
:1001E000FF4F60817181828193810E949804DC01BC
:1001F000CB01F80191838083DE01A35BBF4FFE0139
:10020000EF5AFF4F808191818D939C93FE01E35BB8
:10021000FF4F808191810197F1F7FE01E35BFF4F72
:100220009183808381E00E945904FE01E75BFF4FC8
:1002300080E090E0A0E0B0E480839183A283B38368
:100240008E010B5B1F4FFE01E75BFF4F60817181E9
:100250008281938120E030E04AE755E40E946E06F7
:10026000DC01CB01F80180839183A283B383FE017B
:10027000EB5BFF4F608171818281938120E030E0F0
:1002800040E85FE30E947408882344F4FE01ED5BBC
:10029000FF4F81E090E09183808364C0FE01EB5BBF
:1002A000FF4F608171818281938120E03FEF4FE7B2
:1002B00057E40E94140818160CF043C0FE01E75BD7
:1002C000FF4F608171818281938120E030E040E2C4
:1002D00051E40E946E06DC01CB018E010D5B1F4FC5
:1002E000BC01CD010E949804DC01CB01F80191838F
:1002F00080831FC0FE01EF5BFF4F80E991E0918397
:100300008083FE01EF5BFF4F808191810197F1F7C0
:10031000FE01EF5BFF4F91838083DE01AD5BBF4F3A
:10032000FE01ED5BFF4F80819181019711969C93B7
:100330008E93FE01ED5BFF4F808191810097D1F696
:1003400024C08E010D5B1F4FFE01EB5BFF4F6081F0
:100350007181828193810E949804DC01CB01F801B4
:1003600091838083FE01ED5BFF4F80819181FE01CF
:10037000FF9691838083FE01FF9680819181019792
:10038000F1F7FE01FF969183808388E30E94590470
:1003900080E090E0A8E4B2E48BAF9CAFADAFBEAF1D
:1003A0006BAD7CAD8DAD9EAD2BEA3AEA4AEA50E4E6
:1003B0000E946E06DC01CB018FAB98AFA9AFBAAF3C
:1003C0006FA978AD89AD9AAD20E030E040E85FE3F9
:1003D0000E94740888231CF481E08EAB91C06FA941
:1003E00078AD89AD9AAD20E030E04FE753E40E944C
:1003F000140818160CF07BC06BAD7CAD8DAD9EADB6
:1004000020E030E04AE754E40E946807DC01CB01B9
:100410008AAB9BABACABBDAB6AA97BA98CA99DA9F0
:1004200020E030E04AE755E40E946E06DC01CB0193
:100430008EA79FA7A8ABB9AB6EA57FA588A999A9E0
:1004400020E030E040E85FE30E94740888232CF449
:1004500081E090E09DA78CA73FC06EA57FA588A9ED
:1004600099A920E03FEF4FE757E40E9414081816BF
:100470004CF56AA97BA98CA99DA920E030E040E257
:1004800051E40E946E06DC01CB01BC01CD010E944B
:100490009804DC01CB019DA78CA70FC080E991E0F7
:1004A0009BA78AA78AA59BA50197F1F79BA78AA777
:1004B0008CA59DA501979DA78CA78CA59DA50097B0
:1004C00069F724C06EA57FA588A999A90E94980400
:1004D000DC01CB019DA78CA78CA59DA599A788A71A
:1004E00088A599A50197F1F799A788A70FC06FA9CB
:1004F00078AD89AD9AAD0E949804DC01CB018EAB3A
:100500008EA98FA38FA18A95F1F78FA38EE00E9409
:10051000590480E090E0A8E4B2E48BA39CA3ADA3CF
:10052000BEA36BA17CA18DA19EA12BEA3AEA4AEA67
:1005300050E40E946E06DC01CB018F8F98A3A9A323
:10054000BAA36F8D78A189A19AA120E030E040E89C
:100550005FE30E94740888231CF481E08E8F91C0B1
:100560006F8D78A189A19AA120E030E04FE753E494
:100570000E94140818160CF07BC06BA17CA18DA101
:100580009EA120E030E04AE754E40E946807DC01C5
:10059000CB018A8F9B8FAC8FBD8F6A8D7B8D8C8DAD
:1005A0009D8D20E030E04AE755E40E946E06DC01B4
:1005B000CB018E8B9F8BA88FB98F6E897F89888D99
:1005C000998D20E030E040E85FE30E9474088823C2
:1005D0002CF481E090E09D8B8C8B3FC06E897F89ED
:1005E000888D998D20E03FEF4FE757E40E94140873
:1005F00018164CF56A8D7B8D8C8D9D8D20E030E03A
:1006000040E251E40E946E06DC01CB01BC01CD0149
:100610000E949804DC01CB019D8B8C8B0FC080E97C
:1006200091E09B8B8A8B8A899B890197F1F79B8B41
:100630008A8B8C899D8901979D8B8C8B8C899D8958
:10064000009769F724C06E897F89888D998D0E94F3
:100650009804DC01CB019D8B8C8B8C899D89998BB7
:10066000888B888999890197F1F7998B888B0FC0BE
:100670006F8D78A189A19AA10E949804DC01CB0119
:100680008E8F8E8D8F878F858A95F1F78F87FE01EC
:10069000E35AFF4F11821082A9C0FE01E35AFF4FB7
:1006A000808180580E94590480E091E00E940004FB
:1006B000FE01E35AFF4F808191819E01215A3F4FF5
:1006C000B9014AE050E00E94D50A81EE0E94590427
:1006D000CE01815A9F4F0E94000480E090E0A8E480
:1006E000B3E48B879C87AD87BE876B857C858D85C2
:1006F0009E8520E030E04AE755E40E946E06DC016A
:10070000CB018F839887A987BA876F817885898580
:100710009A8520E030E040E85FE30E947408882377
:100720002CF481E090E09E838D833FC06F817885BB
:1007300089859A8520E03FEF4FE757E40E9414082F
:1007400018164CF56B857C858D859E8520E030E004
:1007500040E251E40E946E06DC01CB01BC01CD01F8
:100760000E949804DC01CB019E838D830FC080E939
:1007700091E09C838B838B819C810197F1F79C8313
:100780008B838D819E8101979E838D838D819E8138
:10079000009769F714C06F81788589859A850E94D2
:1007A0009804DC01CB019E838D838D819E819A8389
:1007B000898389819A810197F1F79A838983FE0160
:1007C000E35AFF4F808180580E94590482E091E0F3
:1007D0000E940004DE01A35ABF4FFE01E35AFF4FFF
:1007E00080819181019611969C938E93FE01E35A2C
:1007F000FF4F80819181803891050CF44ECF47CF17
:10080000DF93CF9300D0CDB7DEB79A8389830CC036
:10081000E981FA818081282F89819A8101969A83C2
:100820008983822F0E947504E981FA81808188235F
:1008300079F70F900F90CF91DF910895DF93CF93C9
:10084000CDB7DEB7A5E2B0E0E5E2F0E080818460FC
:100850008C9300000000A5E2B0E0E5E2F0E08081CA
:100860008B7F8C93CF91DF910895DF93CF93CDB79A
:10087000DEB7EAE2F0E01082A5E2B0E0E5E2F0E007
:10088000808182608C93A5E2B0E0E5E2F0E08081B7
:10089000877F8C9302C00E941E04EBE2F0E080810F
:1008A0008823CCF3EAE2F0E08FEF8083CF91DF91F1
:1008B0000895DF93CF930F92CDB7DEB789830E945F
:1008C0003504EBE2F0E089818083A5E2B0E0E5E267
:1008D000F0E08081857F8C930E941E04EBE2F0E0C3
:1008E00010820F90CF91DF910895DF93CF930F92F5
:1008F000CDB7DEB789830E943504EBE2F0E0898151
:100900008083A5E2B0E0E5E2F0E080818D7F8C930A
:10091000A5E2B0E0E5E2F0E0808188608C930E947F
:100920001E04EBE2F0E010820F90CF91DF9108956A
:10093000EF92FF920F931F937B018C0120E030E038
:1009400040E05FE40E94440888238CF0C801B701AE
:1009500020E030E040E05FE40E9410060E94A4081E
:100960009B01AC01205030404040504806C0C801B7
:10097000B7010E94A4089B01AC01B901CA011F91F3
:100980000F91FF90EF900895A0E0B0E0EAECF4E062
:100990000C949E0ADC012B01FA019C91923008F420
:1009A00039C1EB018881823008F433C1943069F495
:1009B000843009F02FC111969C9111978981981765
:1009C00009F428C1A4E0B1E025C1843009F421C1B3
:1009D0008230A9F4923009F01DC19A01AD0188E07E
:1009E000EA010990AE01E90109929E018150C1F727
:1009F000E201898111969C918923818308C19230FB
:100A000009F407C112962D903C901397EB018A814F
:100A10009B811496AD90BD90CD90DC901797EC80A3
:100A2000FD800E811F819101281B390BB90137FF11
:100A300004C066277727621B730B603271050CF0C8
:100A400061C0121613066CF537014801062E04C06A
:100A500096948794779467940A94D2F721E030E0D3
:100A600040E050E004C0220F331F441F551F6A9519
:100A7000D2F721503040404050402E213F214023AA
:100A80005123211531054105510521F021E030E0C8
:100A900040E050E079018A01E628F7280829192961
:100AA0003CC0232BD1F1260E371E35014601062E00
:100AB00004C096948794779467940A94D2F721E0BF
:100AC00030E040E050E004C0220F331F441F551FA8
:100AD0006A95D2F721503040404050402A213B21B6
:100AE0004C215D21211531054105510521F021E001
:100AF00030E040E050E059016A01A628B728C82834
:100B0000D9280BC0821593052CF01C01AA24BB2404
:100B1000650103C0EE24FF24870111969C91D20148
:100B200011968C91981709F445C0992339F0A801C2
:100B300097012A193B094C095D0906C0A6019501D8
:100B40002E193F09400B510B57FD08C0118233820B
:100B5000228224833583468357831DC081E08183AD
:100B60003382228288279927DC01821B930BA40BF6
:100B7000B50B84839583A683B7830DC0220F331FE3
:100B8000441F551F24833583468357838281938175
:100B90000197938382832481358146815781DA01CD
:100BA000C9010197A109B1098F5F9F4FAF4FBF43A3
:100BB00028F30BC0918333822282EA0CFB1C0C1DAC
:100BC0001D1DE482F5820683178383E080832481E0
:100BD00035814681578157FF1AC0C901AA2797FD61
:100BE000A095BA2F81709070A070B07056954795FF
:100BF00037952795822B932BA42BB52B8483958334
:100C0000A683B78382819381019693838283DF01D8
:100C100001C0D201CD01CDB7DEB7E2E10C94BA0A32
:100C2000A0E2B0E0E6E1F6E00C94AA0A69837A83D8
:100C30008B839C832D833E834F835887E9E0EE2E80
:100C4000F12CEC0EFD1ECE010196B7010E94CD09DC
:100C50008E010F5E1F4FCE010596B8010E94CD098F
:100C60008A8991E089278A8BC701B801AE01475E66
:100C70005F4F0E94C4040E94F808A096E6E00C941E
:100C8000C60AA0E2B0E0E7E4F6E00C94AA0A6983A1
:100C90007A838B839C832D833E834F835887F9E02F
:100CA000EF2EF12CEC0EFD1ECE010196B7010E9435
:100CB000CD098E010F5E1F4FCE010596B8010E942F
:100CC000CD09C701B801AE01475E5F4F0E94C40461
:100CD0000E94F808A096E6E00C94C60AA0E2B0E0F4
:100CE000E4E7F6E00C949E0A69837A838B839C8305
:100CF0002D833E834F835887CE010196BE01675FE7
:100D00007F4F0E94CD09CE010596BE016F5E7F4FD9
:100D10000E94CD099985923088F089898230C8F087
:100D2000943019F4823051F404C0843029F49230A4
:100D300081F484E091E0C6C0923049F420E09A85C5
:100D40008A89981321E02A87CE010996BBC0823098
:100D500049F420E09A858A89981321E02A8BCE01F4
:100D60004196B0C02D843E844F8458886D887E881B
:100D70008F88988CEE24FF248701AA24BB24650168
:100D800040E050E060E070E0E0E0F0E0C101817040
:100D90009070892BE9F0E60CF71C081D191D9A01CB
:100DA000AB012A0D3B1D4C1D5D1D80E090E0A0E0D5
:100DB000B0E0E614F7040805190520F481E090E09E
:100DC000A0E0B0E0BA01A901480F591F6A1F7B1FBC
:100DD000AA0CBB1CCC1CDD1C97FE08C081E090E077
:100DE000A0E0B0E0A82AB92ACA2ADB2A3196E0326C
:100DF000F10549F0660C771C881C991C56944794A1
:100E000037942794C3CFFA85EA892B893C898B854F
:100E10009C85280F391F2E5F3F4F17C0CA01817074
:100E20009070892B61F016950795F794E79480E010
:100E300090E0A0E0B0E8E82AF92A0A2B1B2B76956F
:100E40006795579547952F5F3F4F77FDE7CF0CC0CC
:100E5000440F551F661F771F17FD4160EE0CFF1CE6
:100E6000001F111F21503040403090E0590790E0A2
:100E7000690790E4790760F32B8F3C8FDB01CA018F
:100E80008F779070A070B07080349105A105B10586
:100E900061F447FD0AC0E114F1040105110529F0D0
:100EA000405C5F4F6F4F7F4F40781A8EFE1711F0F6
:100EB00081E08A8F4D8F5E8F6F8F78A383E0898F5B
:100EC000CE0149960E94F808A096E2E10C94BA0A75
:100ED000A8E1B0E0EEE6F7E00C94A60A69837A8315
:100EE0008B839C832D833E834F835887B9E0EB2E01
:100EF000F12CEC0EFD1ECE010196B7010E94CD092A
:100F00008E010F5E1F4FCE010596B8010E94CD09DC
:100F10002985223008F47EC03989323010F4B801B6
:100F20007CC08A859A8989278A87243011F02230EB
:100F300031F4231709F06EC064E071E06EC0343004
:100F400039F41D861E861F86188A1C861B8604C0DF
:100F5000323021F484E08987B7015FC02B853C855E
:100F60008B899C89281B390B3C872B87ED84FE8459
:100F70000F851889AD88BE88CF88D88CEA14FB0409
:100F80000C051D0540F4EE0CFF1C001F111F215025
:100F900030403C872B8720E030E040E050E080E0AC
:100FA00090E0A0E0B0E460E070E0EA14FB040C051F
:100FB0001D0540F0282B392B4A2B5B2BEA18FB0828
:100FC0000C091D09B695A79597958795EE0CFF1C02
:100FD000001F111F6F5F7F4F6F31710531F7DA010D
:100FE000C9018F779070A070B07080349105A10511
:100FF000B10561F427FD0AC0E114F10401051105F2
:1010000029F0205C3F4F4F4F5F4F20782D873E8760
:101010004F87588BBE01675F7F4FCB010E94F80856
:101020006896EAE00C94C20AA8E1B0E0EAE1F8E0D0
:101030000C94AA0A69837A838B839C832D833E83D5
:101040004F83588789E0E82EF12CEC0EFD1ECE016F
:101050000196B7010E94CD098E010F5E1F4FCE0190
:101060000596B8010E94CD098985823040F08989B2
:10107000823028F0C701B8010E94450A01C08FEFF5
:101080006896E6E00C94C60AA8E1B0E0EAE4F8E06D
:101090000C94AA0A69837A838B839C832D833E8375
:1010A0004F83588789E0E82EF12CEC0EFD1ECE010F
:1010B0000196B7010E94CD098E010F5E1F4FCE0130
:1010C0000596B8010E94CD098985823040F0898952
:1010D000823028F0C701B8010E94450A01C08FEF95
:1010E0006896E6E00C94C60AA8E1B0E0EAE7F8E00A
:1010F0000C94AA0A69837A838B839C832D833E8315
:101100004F83588789E0E82EF12CEC0EFD1ECE01AE
:101110000196B7010E94CD098E010F5E1F4FCE01CF
:101120000596B8010E94CD098985823040F08989F1
:10113000823028F0C701B8010E94450A01C081E051
:101140006896E6E00C94C60AACE0B0E0EAEAF8E0A3
:101150000C94AE0A69837A838B839C83CE010196BB
:10116000BE016B5F7F4F0E94CD098D81823061F19E
:10117000823050F1843021F48E81882351F12EC0C9
:101180002F81388537FD20C06E812F3131051CF04D
:101190006623F9F023C08EE190E0821B930B298532
:1011A0003A854B855C8504C05695479537952795BC
:1011B0008A95D2F76623B1F05095409530952195E8
:1011C0003F4F4F4F5F4F0EC020E030E040E050E017
:1011D00009C02FEF3FEF4FEF5FE704C020E030E0A2
:1011E00040E050E8B901CA012C96E2E00C94CA0A2A
:1011F000DF92EF92FF920F931F93FC01E480F58042
:1012000006811781D1808081823048F480E090E0AF
:10121000A0E1B0E0E82AF92A0A2B1B2BA5C08430F4
:1012200009F49FC0823021F4EE24FF24870105C019
:10123000E114F1040105110519F4E0E0F0E096C0B5
:10124000628173819FEF623879070CF05BC022E8FE
:101250003FEF261B370B2A3131052CF020E030E020
:1012600040E050E02AC0B801A701022E04C07695E4
:101270006795579547950A94D2F781E090E0A0E0F2
:10128000B0E004C0880F991FAA1FBB1F2A95D2F790
:101290000197A109B1098E219F21A023B1230097B5
:1012A000A105B10521F081E090E0A0E0B0E09A0155
:1012B000AB01282B392B4A2B5B2BDA01C9018F7725
:1012C0009070A070B07080349105A105B10539F41B
:1012D00027FF09C0205C3F4F4F4F5F4F04C0215C88
:1012E0003F4F4F4F5F4FE0E0F0E02030A0E03A0783
:1012F000A0E04A07A0E45A0710F0E1E0F0E079012D
:101300008A0127C06038710564F5FB01E158FF4F81
:10131000D801C7018F779070A070B07080349105AC
:10132000A105B10539F4E7FE0DC080E490E0A0E02E
:10133000B0E004C08FE390E0A0E0B0E0E80EF91E5A
:101340000A1F1B1F17FF05C016950795F794E79412
:10135000319687E016950795F794E7948A95D1F72B
:1013600005C0EE24FF248701EFEFF0E06E2F6795B4
:1013700066276795902F9F77D794DD24D7948E2F7B
:101380008695492F462B582F5D29B701CA011F9119
:101390000F91FF90EF90DF900895FC01DB014081F9
:1013A00051812281622F6F7770E0221F2227221F36
:1013B0009381892F880F822B282F30E0991F99273E
:1013C000991F11969C93119721153105A9F5411587
:1013D00051056105710511F482E037C082E89FEF85
:1013E00013969C938E9312979A01AB0167E0220F9C
:1013F000331F441F551F6A95D1F783E08C930DC0AE
:10140000220F331F441F551F12968D919C911397E5
:10141000019713969C938E931297203080E03807A3
:1014200080E0480780E4580758F314962D933D93C5
:101430004D935C93179708952F3F310579F441152B
:1014400051056105710519F484E08C93089564FFDA
:1014500003C081E08C9312C01C9210C02F57304003
:1014600013963C932E93129783E08C9387E0440F5E
:10147000551F661F771F8A95D1F7706414964D9398
:101480005D936D937C93179708951F93DC01FB0187
:101490009C91923008F447C08081823008F443C0A8
:1014A000943051F411961C91843099F58181682F04
:1014B00070E0611B71093FC0843021F0923031F43B
:1014C0008230B9F18181882389F12DC011961C9158
:1014D00011978230F1F081811817D9F412962D916D
:1014E0003C911397828193818217930794F0281778
:1014F0003907BCF014968D919D910D90BC91A02D53
:101500002481358146815781281739074A075B07AF
:1015100018F4112341F00AC082179307A407B507F6
:1015200040F4112319F061E070E005C06FEF7FEF28
:1015300002C060E070E0CB011F9108952F923F92AE
:101540004F925F926F927F928F929F92AF92BF92D3
:10155000CF92DF92EF92FF920F931F93CF93DF937F
:10156000CDB7DEB7CA1BDB0B0FB6F894DEBF0FBEDC
:10157000CDBF09942A88398848885F846E847D8429
:101580008C849B84AA84B984C884DF80EE80FD802B
:101590000C811B81AA81B981CE0FD11D0FB6F894A1
:1015A000DEBF0FBECDBFED010895E62FF72F2E2F22
:1015B0003F2FE8944230C4F04532B4F44A3029F465
:1015C00097FB1EF4909581959F4F642F772722D02B
:1015D000805D8A330CF0895D8193862F972F009769
:1015E000A1F716F45DE251931082822F932F00C071
:1015F000A82FB92FE82FF92F672F71917723E1F7E3
:10160000329704C07C916D9370836291AE17BF07CF
:10161000C8F30895AA1BBB1B51E107C0AA1FBB1F3B
:10162000A617B70710F0A61BB70B881F991F5A956E
:10163000A9F780959095BC01CD010895F894FFCF4E
:0C16400058002000000000000000000026
:00000001FF
