:100000000C9434000C943E000C943E000C943E0082
:100010000C943E000C943E000C943E000C943E0068
:100020000C943E000C943E000C943E000C943E0058
:100030000C943E000C943E000C943E000C943E0048
:100040000C943E000C943E000C943E000C943E0038
:100050000C943E000C943E000C943E000C943E0028
:100060000C943E000C943E0011241FBECFEFD8E04C
:10007000DEBFCDBF0E9440000C94E0000C94000055
:10008000DF93CF93CDB7DEB727970FB6F894DEBFD7
:100090000FBECDBFA4E2B0E0E4E2F0E08081806179
:1000A0008C93A5E2B0E0E5E2F0E080818F7E8C9356
:1000B000A4E2B0E0E4E2F0E0808180628C93A5E20B
:1000C000B0E0E5E2F0E080818F7D8C93A4E2B0E0C7
:1000D000E4E2F0E08081877F8C93A5E2B0E0E5E286
:1000E000F0E0808188608C931F821E821D821C82BA
:1000F0001B828FEC90E09A838983E5ECF0E08981A4
:100100009A81892F990F990B8083E4ECF0E0898123
:100110008083E1ECF0E088E18083E2ECF0E088E0CD
:100120008083E2ECF0E086E08083E9E2F0E0808129
:10013000882F90E088709070009789F58D819E815E
:1001400001969E838D831C821B828D819E81893CBA
:1001500091055CF38F818823F9F481E08F83A5E218
:10016000B0E0E5E2F0E0908180E189278C93E0EC5B
:10017000F0E08081882F90E0807290700097B9F352
:10018000E6ECF0E080EF8083A5E2B0E0E5E2F0E0AD
:10019000908180E289278C931E821D82C6CF8B813D
:1001A0009C8101969C838B831E821D828B819C8106
:1001B000893C91050CF4B9CF1C821B821F82B5CFFC
:0401C000F894FFCFE1
:00000001FF
