:100000000C9434000C943E000C943E000C943E0082
:100010000C943E000C943E000C943E000C943E0068
:100020000C943E000C943E000C943E000C943E0058
:100030000C943E000C943E000C943E000C943E0048
:100040000C943E000C943E000C943E000C943E0038
:100050000C943E000C943E000C943E000C943E0028
:100060000C943E000C943E0011241FBECFEFD8E04C
:10007000DEBFCDBF0E9440000C94A7000C9400008E
:10008000DF93CF9300D000D000D0CDB7DEB7A4E28D
:10009000B0E0E4E2F0E0808184618C93A4E2B0E01F
:1000A000E4E2F0E08081877F8C93A5E2B0E0E5E2B6
:1000B000F0E0808188608C93A5E2B0E0E5E2F0E0BA
:1000C000908184E089278C931E821D821C821B8272
:1000D0001A821982E3E2F0E08081882F90E0887034
:1000E0009070009729F58D819E8101969E838D8366
:1000F0008D819E81893C91056CF389819A8100975D
:10010000A1F4A5E2B0E0E5E2F0E0908184E0892787
:100110008C93A5E2B0E0E5E2F0E0908180E18927F0
:100120008C9381E090E09A8389831E821D82D2CFD6
:100130008B819C8101969C838B838B819C81893CE4
:10014000910544F21A8219821C821B82C3CFF89453
:02015000FFCFDF
:00000001FF
