:100000000C9434000C9446000C9446000C9446006A
:100010000C9446000C9446000C9446000C94460048
:100020000C9446000C9446000C9446000C94460038
:100030000C9446000C9446000C9446000C94460028
:100040000C9446000C9446000C9446000C94460018
:100050000C9446000C9446000C9446000C94460008
:100060000C9446000C94460011241FBECFEFD8E03C
:10007000DEBFCDBF11E0A0E0B1E001C01D92A43011
:10008000B107E1F70E9448000C9495000C94000021
:10009000DF93CF9300D0CDB7DEB7AAE2B0E0EAE2BB
:1000A000F0E080818E7F8C93AAE2B0E0EAE2F0E09B
:1000B000808186608C931A821982ABE2B0E0EBE219
:1000C000F0E0908182E089278C93A1E8B0E0E1E83C
:1000D000F0E0808183608C93E4E8F0E0808191819E
:1000E0002CEF89359207C0F3E4E8F0E0118210822A
:1000F000ABE2B0E0EBE2F0E0908182E089278C9304
:1001000089819A818930910554F0ABE2B0E0EBE24D
:10011000F0E0908184E089278C931A82198289818A
:0E0120009A8101969A838983D7CFF894FFCFF6
:00000001FF
