:100000000C9434000C943E000C943E000C943E0082
:100010000C943E000C943E000C943E000C943E0068
:100020000C943E000C943E000C943E000C943E0058
:100030000C943E000C943E000C943E000C943E0048
:100040000C943E000C943E000C943E000C943E0038
:100050000C943E000C943E000C943E000C943E0028
:100060000C943E000C943E0011241FBECFEFD8E04C
:10007000DEBFCDBF0E9440000C947F000C940000B6
:10008000DF93CF93CDB7DEB77894AAE2B0E0EAE28F
:10009000F0E0808182608C93A1E8B0E0E1E8F0E0DC
:1000A00080818B608C93EFE6F0E082E08083E8E86B
:1000B000F0E08FE097E291838083FFCF1F920F9251
:1000C0000FB60F9211248F93AF93BF93EF93FF93CB
:1000D000DF93CF93CDB7DEB7ABE2B0E0EBE2F0E079
:1000E000808182608C93CF91DF91FF91EF91BF91DE
:1000F000AF918F910F900FBE0F901F901895F894AD
:02010000FFCF2F
:00000001FF
